{
  "_format": "hh-sol-artifact-1",
  "contractName": "NFTMarketplace",
  "sourceName": "contracts/NFTMarketplace.sol",
  "abi": [
    {
      "anonymous": false,
      "inputs": [
        {
          "indexed": true,
          "internalType": "uint256",
          "name": "listingId",
          "type": "uint256"
        },
        {
          "indexed": true,
          "internalType": "address",
          "name": "seller",
          "type": "address"
        },
        {
          "indexed": true,
          "internalType": "address",
          "name": "nftContract",
          "type": "address"
        },
        {
          "indexed": false,
          "internalType": "uint256",
          "name": "tokenId",
          "type": "uint256"
        },
        {
          "indexed": false,
          "internalType": "uint256",
          "name": "price",
          "type": "uint256"
        },
        {
          "indexed": false,
          "internalType": "string",
          "name": "imageURL",
          "type": "string"
        }
      ],
      "name": "NFTListed",
      "type": "event"
    },
    {
      "anonymous": false,
      "inputs": [
        {
          "indexed": true,
          "internalType": "uint256",
          "name": "listingId",
          "type": "uint256"
        },
        {
          "indexed": true,
          "internalType": "address",
          "name": "buyer",
          "type": "address"
        }
      ],
      "name": "NFTPurchased",
      "type": "event"
    },
    {
      "anonymous": false,
      "inputs": [
        {
          "indexed": true,
          "internalType": "uint256",
          "name": "listingId",
          "type": "uint256"
        },
        {
          "indexed": true,
          "internalType": "address",
          "name": "redeemer",
          "type": "address"
        }
      ],
      "name": "NFTRedeemed",
      "type": "event"
    },
    {
      "anonymous": false,
      "inputs": [
        {
          "indexed": true,
          "internalType": "address",
          "name": "previousOwner",
          "type": "address"
        },
        {
          "indexed": true,
          "internalType": "address",
          "name": "newOwner",
          "type": "address"
        }
      ],
      "name": "OwnershipTransferred",
      "type": "event"
    },
    {
      "inputs": [
        {
          "internalType": "uint256",
          "name": "_listingId",
          "type": "uint256"
        }
      ],
      "name": "buyNFT",
      "outputs": [],
      "stateMutability": "payable",
      "type": "function"
    },
    {
      "inputs": [
        {
          "internalType": "uint256",
          "name": "_price",
          "type": "uint256"
        },
        {
          "internalType": "string",
          "name": "_imageURL",
          "type": "string"
        }
      ],
      "name": "createAndListNFT",
      "outputs": [],
      "stateMutability": "nonpayable",
      "type": "function"
    },
    {
      "inputs": [
        {
          "internalType": "uint256",
          "name": "_listingId",
          "type": "uint256"
        },
        {
          "internalType": "address",
          "name": "_address",
          "type": "address"
        }
      ],
      "name": "isBuyer",
      "outputs": [
        {
          "internalType": "bool",
          "name": "",
          "type": "bool"
        }
      ],
      "stateMutability": "view",
      "type": "function"
    },
    {
      "inputs": [
        {
          "internalType": "address",
          "name": "_nftContract",
          "type": "address"
        },
        {
          "internalType": "uint256",
          "name": "_tokenId",
          "type": "uint256"
        },
        {
          "internalType": "uint256",
          "name": "_price",
          "type": "uint256"
        },
        {
          "internalType": "string",
          "name": "_imageURL",
          "type": "string"
        }
      ],
      "name": "listNFT",
      "outputs": [],
      "stateMutability": "nonpayable",
      "type": "function"
    },
    {
      "inputs": [],
      "name": "listingCount",
      "outputs": [
        {
          "internalType": "uint256",
          "name": "",
          "type": "uint256"
        }
      ],
      "stateMutability": "view",
      "type": "function"
    },
    {
      "inputs": [
        {
          "internalType": "uint256",
          "name": "",
          "type": "uint256"
        }
      ],
      "name": "listings",
      "outputs": [
        {
          "internalType": "address",
          "name": "seller",
          "type": "address"
        },
        {
          "internalType": "address",
          "name": "buyer",
          "type": "address"
        },
        {
          "internalType": "address",
          "name": "nftContract",
          "type": "address"
        },
        {
          "internalType": "uint256",
          "name": "tokenId",
          "type": "uint256"
        },
        {
          "internalType": "uint256",
          "name": "price",
          "type": "uint256"
        },
        {
          "internalType": "string",
          "name": "imageURL",
          "type": "string"
        },
        {
          "internalType": "bool",
          "name": "sold",
          "type": "bool"
        },
        {
          "internalType": "bool",
          "name": "redeemed",
          "type": "bool"
        }
      ],
      "stateMutability": "view",
      "type": "function"
    },
    {
      "inputs": [],
      "name": "owner",
      "outputs": [
        {
          "internalType": "address",
          "name": "",
          "type": "address"
        }
      ],
      "stateMutability": "view",
      "type": "function"
    },
    {
      "inputs": [
        {
          "internalType": "uint256",
          "name": "_listingId",
          "type": "uint256"
        }
      ],
      "name": "redeemNFT",
      "outputs": [],
      "stateMutability": "nonpayable",
      "type": "function"
    },
    {
      "inputs": [],
      "name": "renounceOwnership",
      "outputs": [],
      "stateMutability": "nonpayable",
      "type": "function"
    },
    {
      "inputs": [
        {
          "internalType": "address",
          "name": "newOwner",
          "type": "address"
        }
      ],
      "name": "transferOwnership",
      "outputs": [],
      "stateMutability": "nonpayable",
      "type": "function"
    }
  ],
  "bytecode": "0x608060405234801561001057600080fd5b5061002d61002261003260201b60201c565b61003a60201b60201c565b6100fe565b600033905090565b60008060009054906101000a900473ffffffffffffffffffffffffffffffffffffffff169050816000806101000a81548173ffffffffffffffffffffffffffffffffffffffff021916908373ffffffffffffffffffffffffffffffffffffffff1602179055508173ffffffffffffffffffffffffffffffffffffffff168173ffffffffffffffffffffffffffffffffffffffff167f8be0079c531659141344cd1fd0a4f28419497f9722a3daafe3b4186f6b6457e060405160405180910390a35050565b611e5d8061010d6000396000f3fe6080604052600436106100915760003560e01c8063a9b07c2611610059578063a9b07c2614610146578063cada70b014610171578063de74e57b146101ae578063e43ec1bc146101f2578063f2fde38b1461021b57610091565b806351ed82881461009657806358dc2cdb146100b2578063715018a6146100db5780638da5cb5b146100f2578063a04417801461011d575b600080fd5b6100b060048036038101906100ab919061117e565b610244565b005b3480156100be57600080fd5b506100d960048036038101906100d4919061117e565b61051a565b005b3480156100e757600080fd5b506100f06106cb565b005b3480156100fe57600080fd5b506101076106df565b60405161011491906111ec565b60405180910390f35b34801561012957600080fd5b50610144600480360381019061013f9190611379565b610708565b005b34801561015257600080fd5b5061015b610b40565b604051610168919061140b565b60405180910390f35b34801561017d57600080fd5b5061019860048036038101906101939190611426565b610b46565b6040516101a59190611481565b60405180910390f35b3480156101ba57600080fd5b506101d560048036038101906101d0919061117e565b610bb5565b6040516101e998979695949392919061151b565b60405180910390f35b3480156101fe57600080fd5b50610219600480360381019061021491906115a0565b610cff565b005b34801561022757600080fd5b50610242600480360381019061023d91906115fc565b610f67565b005b60006001600083815260200190815260200160002090508060060160009054906101000a900460ff16156102ad576040517f08c379a00000000000000000000000000000000000000000000000000000000081526004016102a490611675565b60405180910390fd5b806004015434146102f3576040517f08c379a00000000000000000000000000000000000000000000000000000000081526004016102ea906116e1565b60405180910390fd5b60018160060160006101000a81548160ff021916908315150217905550338160010160006101000a81548173ffffffffffffffffffffffffffffffffffffffff021916908373ffffffffffffffffffffffffffffffffffffffff1602179055508060000160009054906101000a900473ffffffffffffffffffffffffffffffffffffffff1673ffffffffffffffffffffffffffffffffffffffff166108fc349081150290604051600060405180830381858888f193505050501580156103bd573d6000803e3d6000fd5b50600073ffffffffffffffffffffffffffffffffffffffff168160020160009054906101000a900473ffffffffffffffffffffffffffffffffffffffff1673ffffffffffffffffffffffffffffffffffffffff16146104d2578060020160009054906101000a900473ffffffffffffffffffffffffffffffffffffffff1673ffffffffffffffffffffffffffffffffffffffff166342842e0e8260000160009054906101000a900473ffffffffffffffffffffffffffffffffffffffff163384600301546040518463ffffffff1660e01b815260040161049f93929190611701565b600060405180830381600087803b1580156104b957600080fd5b505af11580156104cd573d6000803e3d6000fd5b505050505b3373ffffffffffffffffffffffffffffffffffffffff16827fbebca6653c629a651174dc2ea9b9f7ef506290dee89fe1a6087eb1e12c06d43060405160405180910390a35050565b60006001600083815260200190815260200160002090508060060160009054906101000a900460ff16610582576040517f08c379a000000000000000000000000000000000000000000000000000000000815260040161057990611784565b60405180910390fd5b8060060160019054906101000a900460ff16156105d4576040517f08c379a00000000000000000000000000000000000000000000000000000000081526004016105cb906117f0565b60405180910390fd5b8060010160009054906101000a900473ffffffffffffffffffffffffffffffffffffffff1673ffffffffffffffffffffffffffffffffffffffff163373ffffffffffffffffffffffffffffffffffffffff1614610666576040517f08c379a000000000000000000000000000000000000000000000000000000000815260040161065d9061185c565b60405180910390fd5b60018160060160016101000a81548160ff0219169083151502179055503373ffffffffffffffffffffffffffffffffffffffff16827f7be71752f68c15e043adc3b4f121846c1f4860a79b7e8ecc932ddbc10e63b49360405160405180910390a35050565b6106d3610fea565b6106dd6000611068565b565b60008060009054906101000a900473ffffffffffffffffffffffffffffffffffffffff16905090565b60008490503373ffffffffffffffffffffffffffffffffffffffff168173ffffffffffffffffffffffffffffffffffffffff16636352211e866040518263ffffffff1660e01b815260040161075d919061140b565b602060405180830381865afa15801561077a573d6000803e3d6000fd5b505050506040513d601f19601f8201168201806040525081019061079e9190611891565b73ffffffffffffffffffffffffffffffffffffffff16146107f4576040517f08c379a00000000000000000000000000000000000000000000000000000000081526004016107eb9061190a565b60405180910390fd5b3073ffffffffffffffffffffffffffffffffffffffff168173ffffffffffffffffffffffffffffffffffffffff1663081812fc866040518263ffffffff1660e01b8152600401610844919061140b565b602060405180830381865afa158015610861573d6000803e3d6000fd5b505050506040513d601f19601f820116820180604052508101906108859190611891565b73ffffffffffffffffffffffffffffffffffffffff16146108db576040517f08c379a00000000000000000000000000000000000000000000000000000000081526004016108d290611976565b60405180910390fd5b6040518061010001604052803373ffffffffffffffffffffffffffffffffffffffff168152602001600073ffffffffffffffffffffffffffffffffffffffff1681526020018673ffffffffffffffffffffffffffffffffffffffff1681526020018581526020018481526020018381526020016000151581526020016000151581525060016000600254815260200190815260200160002060008201518160000160006101000a81548173ffffffffffffffffffffffffffffffffffffffff021916908373ffffffffffffffffffffffffffffffffffffffff16021790555060208201518160010160006101000a81548173ffffffffffffffffffffffffffffffffffffffff021916908373ffffffffffffffffffffffffffffffffffffffff16021790555060408201518160020160006101000a81548173ffffffffffffffffffffffffffffffffffffffff021916908373ffffffffffffffffffffffffffffffffffffffff160217905550606082015181600301556080820151816004015560a0820151816005019081610a719190611ba2565b5060c08201518160060160006101000a81548160ff02191690831515021790555060e08201518160060160016101000a81548160ff0219169083151502179055509050508473ffffffffffffffffffffffffffffffffffffffff163373ffffffffffffffffffffffffffffffffffffffff166002547ff742e32f2f44aa3b61b7344d1f2a310401483d0f5dabc1cac0f4e150567dd87f878787604051610b1993929190611c74565b60405180910390a460026000815480929190610b3490611ce1565b91905055505050505050565b60025481565b60008173ffffffffffffffffffffffffffffffffffffffff166001600085815260200190815260200160002060010160009054906101000a900473ffffffffffffffffffffffffffffffffffffffff1673ffffffffffffffffffffffffffffffffffffffff1614905092915050565b60016020528060005260406000206000915090508060000160009054906101000a900473ffffffffffffffffffffffffffffffffffffffff16908060010160009054906101000a900473ffffffffffffffffffffffffffffffffffffffff16908060020160009054906101000a900473ffffffffffffffffffffffffffffffffffffffff1690806003015490806004015490806005018054610c56906119c5565b80601f0160208091040260200160405190810160405280929190818152602001828054610c82906119c5565b8015610ccf5780601f10610ca457610100808354040283529160200191610ccf565b820191906000526020600020905b815481529060010190602001808311610cb257829003601f168201915b5050505050908060060160009054906101000a900460ff16908060060160019054906101000a900460ff16905088565b6040518061010001604052803373ffffffffffffffffffffffffffffffffffffffff168152602001600073ffffffffffffffffffffffffffffffffffffffff168152602001600073ffffffffffffffffffffffffffffffffffffffff16815260200160025481526020018381526020018281526020016000151581526020016000151581525060016000600254815260200190815260200160002060008201518160000160006101000a81548173ffffffffffffffffffffffffffffffffffffffff021916908373ffffffffffffffffffffffffffffffffffffffff16021790555060208201518160010160006101000a81548173ffffffffffffffffffffffffffffffffffffffff021916908373ffffffffffffffffffffffffffffffffffffffff16021790555060408201518160020160006101000a81548173ffffffffffffffffffffffffffffffffffffffff021916908373ffffffffffffffffffffffffffffffffffffffff160217905550606082015181600301556080820151816004015560a0820151816005019081610e989190611ba2565b5060c08201518160060160006101000a81548160ff02191690831515021790555060e08201518160060160016101000a81548160ff021916908315150217905550905050600073ffffffffffffffffffffffffffffffffffffffff163373ffffffffffffffffffffffffffffffffffffffff166002547ff742e32f2f44aa3b61b7344d1f2a310401483d0f5dabc1cac0f4e150567dd87f6002548686604051610f4393929190611c74565b60405180910390a460026000815480929190610f5e90611ce1565b91905055505050565b610f6f610fea565b600073ffffffffffffffffffffffffffffffffffffffff168173ffffffffffffffffffffffffffffffffffffffff1603610fde576040517f08c379a0000000000000000000000000000000000000000000000000000000008152600401610fd590611d9b565b60405180910390fd5b610fe781611068565b50565b610ff261112c565b73ffffffffffffffffffffffffffffffffffffffff166110106106df565b73ffffffffffffffffffffffffffffffffffffffff1614611066576040517f08c379a000000000000000000000000000000000000000000000000000000000815260040161105d90611e07565b60405180910390fd5b565b60008060009054906101000a900473ffffffffffffffffffffffffffffffffffffffff169050816000806101000a81548173ffffffffffffffffffffffffffffffffffffffff021916908373ffffffffffffffffffffffffffffffffffffffff1602179055508173ffffffffffffffffffffffffffffffffffffffff168173ffffffffffffffffffffffffffffffffffffffff167f8be0079c531659141344cd1fd0a4f28419497f9722a3daafe3b4186f6b6457e060405160405180910390a35050565b600033905090565b6000604051905090565b600080fd5b600080fd5b6000819050919050565b61115b81611148565b811461116657600080fd5b50565b60008135905061117881611152565b92915050565b6000602082840312156111945761119361113e565b5b60006111a284828501611169565b91505092915050565b600073ffffffffffffffffffffffffffffffffffffffff82169050919050565b60006111d6826111ab565b9050919050565b6111e6816111cb565b82525050565b600060208201905061120160008301846111dd565b92915050565b611210816111cb565b811461121b57600080fd5b50565b60008135905061122d81611207565b92915050565b600080fd5b600080fd5b6000601f19601f8301169050919050565b7f4e487b7100000000000000000000000000000000000000000000000000000000600052604160045260246000fd5b6112868261123d565b810181811067ffffffffffffffff821117156112a5576112a461124e565b5b80604052505050565b60006112b8611134565b90506112c4828261127d565b919050565b600067ffffffffffffffff8211156112e4576112e361124e565b5b6112ed8261123d565b9050602081019050919050565b82818337600083830152505050565b600061131c611317846112c9565b6112ae565b90508281526020810184848401111561133857611337611238565b5b6113438482856112fa565b509392505050565b600082601f8301126113605761135f611233565b5b8135611370848260208601611309565b91505092915050565b600080600080608085870312156113935761139261113e565b5b60006113a18782880161121e565b94505060206113b287828801611169565b93505060406113c387828801611169565b925050606085013567ffffffffffffffff8111156113e4576113e3611143565b5b6113f08782880161134b565b91505092959194509250565b61140581611148565b82525050565b600060208201905061142060008301846113fc565b92915050565b6000806040838503121561143d5761143c61113e565b5b600061144b85828601611169565b925050602061145c8582860161121e565b9150509250929050565b60008115159050919050565b61147b81611466565b82525050565b60006020820190506114966000830184611472565b92915050565b600081519050919050565b600082825260208201905092915050565b60005b838110156114d65780820151818401526020810190506114bb565b60008484015250505050565b60006114ed8261149c565b6114f781856114a7565b93506115078185602086016114b8565b6115108161123d565b840191505092915050565b600061010082019050611531600083018b6111dd565b61153e602083018a6111dd565b61154b60408301896111dd565b61155860608301886113fc565b61156560808301876113fc565b81810360a083015261157781866114e2565b905061158660c0830185611472565b61159360e0830184611472565b9998505050505050505050565b600080604083850312156115b7576115b661113e565b5b60006115c585828601611169565b925050602083013567ffffffffffffffff8111156115e6576115e5611143565b5b6115f28582860161134b565b9150509250929050565b6000602082840312156116125761161161113e565b5b60006116208482850161121e565b91505092915050565b7f4e465420616c726561647920736f6c6400000000000000000000000000000000600082015250565b600061165f6010836114a7565b915061166a82611629565b602082019050919050565b6000602082019050818103600083015261168e81611652565b9050919050565b7f496e636f72726563742070726963650000000000000000000000000000000000600082015250565b60006116cb600f836114a7565b91506116d682611695565b602082019050919050565b600060208201905081810360008301526116fa816116be565b9050919050565b600060608201905061171660008301866111dd565b61172360208301856111dd565b61173060408301846113fc565b949350505050565b7f4e4654206d757374206265207075726368617365642066697273740000000000600082015250565b600061176e601b836114a7565b915061177982611738565b602082019050919050565b6000602082019050818103600083015261179d81611761565b9050919050565b7f4e465420616c72656164792072656465656d6564000000000000000000000000600082015250565b60006117da6014836114a7565b91506117e5826117a4565b602082019050919050565b60006020820190508181036000830152611809816117cd565b9050919050565b7f4f6e6c79207468652062757965722063616e2072656465656d00000000000000600082015250565b60006118466019836114a7565b915061185182611810565b602082019050919050565b6000602082019050818103600083015261187581611839565b9050919050565b60008151905061188b81611207565b92915050565b6000602082840312156118a7576118a661113e565b5b60006118b58482850161187c565b91505092915050565b7f596f7520617265206e6f7420746865206f776e65720000000000000000000000600082015250565b60006118f46015836114a7565b91506118ff826118be565b602082019050919050565b60006020820190508181036000830152611923816118e7565b9050919050565b7f436f6e7472616374206e6f7420617070726f7665640000000000000000000000600082015250565b60006119606015836114a7565b915061196b8261192a565b602082019050919050565b6000602082019050818103600083015261198f81611953565b9050919050565b7f4e487b7100000000000000000000000000000000000000000000000000000000600052602260045260246000fd5b600060028204905060018216806119dd57607f821691505b6020821081036119f0576119ef611996565b5b50919050565b60008190508160005260206000209050919050565b60006020601f8301049050919050565b600082821b905092915050565b600060088302611a587fffffffffffffffffffffffffffffffffffffffffffffffffffffffffffffffff82611a1b565b611a628683611a1b565b95508019841693508086168417925050509392505050565b6000819050919050565b6000611a9f611a9a611a9584611148565b611a7a565b611148565b9050919050565b6000819050919050565b611ab983611a84565b611acd611ac582611aa6565b848454611a28565b825550505050565b600090565b611ae2611ad5565b611aed818484611ab0565b505050565b5b81811015611b1157611b06600082611ada565b600181019050611af3565b5050565b601f821115611b5657611b27816119f6565b611b3084611a0b565b81016020851015611b3f578190505b611b53611b4b85611a0b565b830182611af2565b50505b505050565b600082821c905092915050565b6000611b7960001984600802611b5b565b1980831691505092915050565b6000611b928383611b68565b9150826002028217905092915050565b611bab8261149c565b67ffffffffffffffff811115611bc457611bc361124e565b5b611bce82546119c5565b611bd9828285611b15565b600060209050601f831160018114611c0c5760008415611bfa578287015190505b611c048582611b86565b865550611c6c565b601f198416611c1a866119f6565b60005b82811015611c4257848901518255600182019150602085019450602081019050611c1d565b86831015611c5f5784890151611c5b601f891682611b68565b8355505b6001600288020188555050505b505050505050565b6000606082019050611c8960008301866113fc565b611c9660208301856113fc565b8181036040830152611ca881846114e2565b9050949350505050565b7f4e487b7100000000000000000000000000000000000000000000000000000000600052601160045260246000fd5b6000611cec82611148565b91507fffffffffffffffffffffffffffffffffffffffffffffffffffffffffffffffff8203611d1e57611d1d611cb2565b5b600182019050919050565b7f4f776e61626c653a206e6577206f776e657220697320746865207a65726f206160008201527f6464726573730000000000000000000000000000000000000000000000000000602082015250565b6000611d856026836114a7565b9150611d9082611d29565b604082019050919050565b60006020820190508181036000830152611db481611d78565b9050919050565b7f4f776e61626c653a2063616c6c6572206973206e6f7420746865206f776e6572600082015250565b6000611df16020836114a7565b9150611dfc82611dbb565b602082019050919050565b60006020820190508181036000830152611e2081611de4565b905091905056fea26469706673582212207f7cfe5f69ad474cc2f6773a2d94a5a9e4eee9694ffca6304cbd4f0a849af1aa64736f6c63430008130033",
  "linkReferences": {},
  "deployedLinkReferences": {}
}